{
  "_format": "hh-sol-artifact-1",
  "contractName": "Counter",
  "sourceName": "contracts/Counter.sol",
  "abi": [
    {
      "anonymous": false,
      "inputs": [
        {
          "indexed": false,
          "internalType": "uint256",
          "name": "newValue",
          "type": "uint256"
        }
      ],
      "name": "ValueChanged",
      "type": "event"
    },
    {
      "inputs": [],
      "name": "getValue",
      "outputs": [
        {
          "internalType": "uint256",
          "name": "",
          "type": "uint256"
        }
      ],
      "stateMutability": "view",
      "type": "function"
    },
    {
      "inputs": [],
      "name": "increment",
      "outputs": [],
      "stateMutability": "nonpayable",
      "type": "function"
    },
    {
      "stateMutability": "payable",
      "type": "receive"
    }
  ],
  "bytecode": "0x6080604052348015600f57600080fd5b506101a58061001f6000396000f3fe60806040526004361061002d5760003560e01c80632096525514610039578063d09de08a1461006457610034565b3661003457005b600080fd5b34801561004557600080fd5b5061004e61007b565b60405161005b91906100f1565b60405180910390f35b34801561007057600080fd5b50610079610084565b005b60008054905090565b6001600080828254610096919061013b565b925050819055507f93fe6d397c74fdf1402a8b72e47b68512f0510d7b98a4bc4cbdf6ac7108b3c596000546040516100ce91906100f1565b60405180910390a1565b6000819050919050565b6100eb816100d8565b82525050565b600060208201905061010660008301846100e2565b92915050565b7f4e487b7100000000000000000000000000000000000000000000000000000000600052601160045260246000fd5b6000610146826100d8565b9150610151836100d8565b92508282019050808211156101695761016861010c565b5b9291505056fea26469706673582212202f894d4020be02d49eb1d72328d1e45568605fa22318ece3cd01590b33f0813064736f6c634300081a0033",
  "linkReferences": {},
  "deployedLinkReferences": {}
}